{
  "contractName": "NFTOperator",
  "abi": [
    {
      "inputs": [
        {
          "internalType": "contract INFT",
          "name": "_nft",
          "type": "address"
        }
      ],
      "stateMutability": "nonpayable",
      "type": "constructor"
    },
    {
      "anonymous": false,
      "inputs": [
        {
          "indexed": true,
          "internalType": "address",
          "name": "previousOwner",
          "type": "address"
        },
        {
          "indexed": true,
          "internalType": "address",
          "name": "newOwner",
          "type": "address"
        }
      ],
      "name": "OwnershipTransferred",
      "type": "event"
    },
    {
      "inputs": [],
      "name": "nft",
      "outputs": [
        {
          "internalType": "contract INFT",
          "name": "",
          "type": "address"
        }
      ],
      "stateMutability": "view",
      "type": "function",
      "constant": true
    },
    {
      "inputs": [],
      "name": "owner",
      "outputs": [
        {
          "internalType": "address",
          "name": "",
          "type": "address"
        }
      ],
      "stateMutability": "view",
      "type": "function",
      "constant": true
    },
    {
      "inputs": [],
      "name": "renounceOwnership",
      "outputs": [],
      "stateMutability": "nonpayable",
      "type": "function"
    },
    {
      "inputs": [
        {
          "internalType": "address",
          "name": "newOwner",
          "type": "address"
        }
      ],
      "name": "transferOwnership",
      "outputs": [],
      "stateMutability": "nonpayable",
      "type": "function"
    },
    {
      "inputs": [
        {
          "internalType": "address",
          "name": "_operator",
          "type": "address"
        }
      ],
      "name": "isApprovedOperator",
      "outputs": [
        {
          "internalType": "bool",
          "name": "",
          "type": "bool"
        }
      ],
      "stateMutability": "view",
      "type": "function",
      "constant": true
    },
    {
      "inputs": [
        {
          "internalType": "address",
          "name": "_operator",
          "type": "address"
        }
      ],
      "name": "addOperator",
      "outputs": [],
      "stateMutability": "nonpayable",
      "type": "function"
    },
    {
      "inputs": [
        {
          "internalType": "address",
          "name": "_operator",
          "type": "address"
        }
      ],
      "name": "removeOperator",
      "outputs": [],
      "stateMutability": "nonpayable",
      "type": "function"
    },
    {
      "inputs": [
        {
          "internalType": "address",
          "name": "_owner",
          "type": "address"
        }
      ],
      "name": "mint",
      "outputs": [
        {
          "internalType": "uint256",
          "name": "",
          "type": "uint256"
        }
      ],
      "stateMutability": "nonpayable",
      "type": "function"
    }
  ],
  "bytecode": "0x608060405234801561001057600080fd5b50604051610c88380380610c888339818101604052602081101561003357600080fd5b8101908080519060200190929190505050600061005461013960201b60201c565b9050806000806101000a81548173ffffffffffffffffffffffffffffffffffffffff021916908373ffffffffffffffffffffffffffffffffffffffff1602179055508073ffffffffffffffffffffffffffffffffffffffff16600073ffffffffffffffffffffffffffffffffffffffff167f8be0079c531659141344cd1fd0a4f28419497f9722a3daafe3b4186f6b6457e060405160405180910390a35080600360006101000a81548173ffffffffffffffffffffffffffffffffffffffff021916908373ffffffffffffffffffffffffffffffffffffffff16021790555050610141565b600033905090565b610b38806101506000396000f3fe608060405234801561001057600080fd5b50600436106100885760003560e01c80638da5cb5b1161005b5780638da5cb5b1461017d5780639870d7fe146101b1578063ac8a584a146101f5578063f2fde38b1461023957610088565b806347ccca021461008d5780635a7d11d3146100c15780636a6278421461011b578063715018a614610173575b600080fd5b61009561027d565b604051808273ffffffffffffffffffffffffffffffffffffffff16815260200191505060405180910390f35b610103600480360360208110156100d757600080fd5b81019080803573ffffffffffffffffffffffffffffffffffffffff1690602001909291905050506102a3565b60405180821515815260200191505060405180910390f35b61015d6004803603602081101561013157600080fd5b81019080803573ffffffffffffffffffffffffffffffffffffffff1690602001909291905050506102c0565b6040518082815260200191505060405180910390f35b61017b6103b3565b005b610185610520565b604051808273ffffffffffffffffffffffffffffffffffffffff16815260200191505060405180910390f35b6101f3600480360360208110156101c757600080fd5b81019080803573ffffffffffffffffffffffffffffffffffffffff169060200190929190505050610549565b005b6102376004803603602081101561020b57600080fd5b81019080803573ffffffffffffffffffffffffffffffffffffffff169060200190929190505050610610565b005b61027b6004803603602081101561024f57600080fd5b81019080803573ffffffffffffffffffffffffffffffffffffffff1690602001909291905050506106d7565b005b600360009054906101000a900473ffffffffffffffffffffffffffffffffffffffff1681565b60006102b98260016108c990919063ffffffff16565b9050919050565b60006102dd6102cd6108f9565b60016108c990919063ffffffff16565b6102e657600080fd5b600360009054906101000a900473ffffffffffffffffffffffffffffffffffffffff1673ffffffffffffffffffffffffffffffffffffffff16636a627842836040518263ffffffff1660e01b8152600401808273ffffffffffffffffffffffffffffffffffffffff168152602001915050602060405180830381600087803b15801561037157600080fd5b505af1158015610385573d6000803e3d6000fd5b505050506040513d602081101561039b57600080fd5b81019080805190602001909291905050509050919050565b6103bb6108f9565b73ffffffffffffffffffffffffffffffffffffffff166103d9610520565b73ffffffffffffffffffffffffffffffffffffffff1614610462576040517f08c379a00000000000000000000000000000000000000000000000000000000081526004018080602001828103825260208152602001807f4f776e61626c653a2063616c6c6572206973206e6f7420746865206f776e657281525060200191505060405180910390fd5b600073ffffffffffffffffffffffffffffffffffffffff1660008054906101000a900473ffffffffffffffffffffffffffffffffffffffff1673ffffffffffffffffffffffffffffffffffffffff167f8be0079c531659141344cd1fd0a4f28419497f9722a3daafe3b4186f6b6457e060405160405180910390a360008060006101000a81548173ffffffffffffffffffffffffffffffffffffffff021916908373ffffffffffffffffffffffffffffffffffffffff160217905550565b60008060009054906101000a900473ffffffffffffffffffffffffffffffffffffffff16905090565b6105516108f9565b73ffffffffffffffffffffffffffffffffffffffff1661056f610520565b73ffffffffffffffffffffffffffffffffffffffff16146105f8576040517f08c379a00000000000000000000000000000000000000000000000000000000081526004018080602001828103825260208152602001807f4f776e61626c653a2063616c6c6572206973206e6f7420746865206f776e657281525060200191505060405180910390fd5b61060c81600161090190919063ffffffff16565b5050565b6106186108f9565b73ffffffffffffffffffffffffffffffffffffffff16610636610520565b73ffffffffffffffffffffffffffffffffffffffff16146106bf576040517f08c379a00000000000000000000000000000000000000000000000000000000081526004018080602001828103825260208152602001807f4f776e61626c653a2063616c6c6572206973206e6f7420746865206f776e657281525060200191505060405180910390fd5b6106d381600161093190919063ffffffff16565b5050565b6106df6108f9565b73ffffffffffffffffffffffffffffffffffffffff166106fd610520565b73ffffffffffffffffffffffffffffffffffffffff1614610786576040517f08c379a00000000000000000000000000000000000000000000000000000000081526004018080602001828103825260208152602001807f4f776e61626c653a2063616c6c6572206973206e6f7420746865206f776e657281525060200191505060405180910390fd5b600073ffffffffffffffffffffffffffffffffffffffff168173ffffffffffffffffffffffffffffffffffffffff16141561080c576040517f08c379a0000000000000000000000000000000000000000000000000000000008152600401808060200182810382526026815260200180610add6026913960400191505060405180910390fd5b8073ffffffffffffffffffffffffffffffffffffffff1660008054906101000a900473ffffffffffffffffffffffffffffffffffffffff1673ffffffffffffffffffffffffffffffffffffffff167f8be0079c531659141344cd1fd0a4f28419497f9722a3daafe3b4186f6b6457e060405160405180910390a3806000806101000a81548173ffffffffffffffffffffffffffffffffffffffff021916908373ffffffffffffffffffffffffffffffffffffffff16021790555050565b60006108f1836000018373ffffffffffffffffffffffffffffffffffffffff1660001b610961565b905092915050565b600033905090565b6000610929836000018373ffffffffffffffffffffffffffffffffffffffff1660001b610984565b905092915050565b6000610959836000018373ffffffffffffffffffffffffffffffffffffffff1660001b6109f4565b905092915050565b600080836001016000848152602001908152602001600020541415905092915050565b60006109908383610961565b6109e95782600001829080600181540180825580915050600190039060005260206000200160009091909190915055826000018054905083600101600084815260200190815260200160002081905550600190506109ee565b600090505b92915050565b60008083600101600084815260200190815260200160002054905060008114610ad05760006001820390506000600186600001805490500390506000866000018281548110610a3f57fe5b9060005260206000200154905080876000018481548110610a5c57fe5b9060005260206000200181905550600183018760010160008381526020019081526020016000208190555086600001805480610a9457fe5b60019003818190600052602060002001600090559055866001016000878152602001908152602001600020600090556001945050505050610ad6565b60009150505b9291505056fe4f776e61626c653a206e6577206f776e657220697320746865207a65726f2061646472657373a2646970667358221220836de2351b9f05635d31665122a82265c7d9c7017f2cc3635c4cb05d5bc0f43564736f6c63430007060033",
  "immutableReferences": {},
  "source": "// SPDX-License-Identifier: MIT\n\npragma solidity ^0.7.0;\n\nimport \"@openzeppelin/contracts/utils/EnumerableSet.sol\";\nimport \"@openzeppelin/contracts/access/Ownable.sol\";\n\nimport \"../interfaces/INFTOperator.sol\";\nimport \"../interfaces/INFT.sol\";\n\ncontract NFTOperator is INFTOperator, Ownable {\n  using EnumerableSet for EnumerableSet.AddressSet;\n\n  EnumerableSet.AddressSet private approvedOperators;\n\n  INFT public nft;\n\n  constructor(\n    INFT _nft\n  ) {\n    nft = _nft;\n  }\n\n  //\n  // function isApprovedOperator(address _operator) external view returns (bool);\n  // function addOperator(address _operator) external;\n  // function removeOperator(address _operator) external;\n  // function mint(address _onwer) external returns (uint256);\n\n  function isApprovedOperator(address _operator) external view override returns (bool) {\n    return approvedOperators.contains(_operator);\n  }\n\n  function addOperator(address _operator) external override onlyOwner {\n    approvedOperators.add(_operator);\n  }\n\n  function removeOperator(address _operator) external override onlyOwner {\n    approvedOperators.remove(_operator);\n  }\n\n  function mint(address _owner) external override onlyApprovedOperator returns (uint256) {\n    return nft.mint(_owner);\n  }\n\n  modifier onlyApprovedOperator() {\n    require(approvedOperators.contains(_msgSender()));\n    _;\n  }\n\n}\n",
  "sourcePath": "/Users/wkzq/code/contracts/smartcontract-study/erc721/contracts/NFT/NFTOperator.sol",
  "compiler": {
    "name": "solc",
    "version": "0.7.6+commit.7338295f.Emscripten.clang"
  },
  "schemaVersion": "3.3.4",
  "updatedAt": "2021-03-03T16:57:00.879Z",
  "networkType": "ethereum",
  "devdoc": {
    "kind": "dev",
    "methods": {
      "owner()": {
        "details": "Returns the address of the current owner."
      },
      "renounceOwnership()": {
        "details": "Leaves the contract without owner. It will not be possible to call `onlyOwner` functions anymore. Can only be called by the current owner. NOTE: Renouncing ownership will leave the contract without an owner, thereby removing any functionality that is only available to the owner."
      },
      "transferOwnership(address)": {
        "details": "Transfers ownership of the contract to a new account (`newOwner`). Can only be called by the current owner."
      }
    },
    "version": 1
  },
  "userdoc": {
    "kind": "user",
    "methods": {},
    "version": 1
  }
}